:100000000C9456010C9487010C9487010C94870181
:100010000C9487010C9487010C9487010C94870140
:100020000C9487010C9487010C9487010C94870130
:100030000C9487010C9487010C9487010C94870120
:100040000C9487010C9487010C9487010C94870110
:100050000C9487010C9487010C9487010C94DB0DA0
:100060000C9487010C94660E0C943C0E0C94870142
:100070000C9487010C9487010C9487010C948701E0
:100080000C9487010C9487010C9487010C948701D0
:100090000C9487010C9487010C9487010C948701C0
:1000A0000C9487010C9487010C9487010C948701B0
:1000B0000C9487010C9487010C9487010C948701A0
:1000C0000C9487010C9487010C9487010C94870190
:1000D0000C9487010C9487010C9487010C94870180
:1000E0000C9487010C94AE010C94F8010C94D4018B
:1000F0000C94BA040C94C6060C94B3030C94C80177
:100100000C9403020C94D5030C94CB060C94FE01C2
:100110000C94BA010C94B4010C9470040C943F0339
:100120000C94B1060C94CF060C94E0010C94DA0107
:100130000C94A8010C94A2030C94EC010C94BE0145
:100140000C94F2010C94C80D0C94B5060C94CE01DD
:100150000C94C7030C94C2010C94BD060C94E601E8
:100160000C94B9060C94C2064E414E494E4954595E
:10017000494E46CDCCCC3D0AD7233C17B7D1387772
:10018000CC2B329595E6241FB14F0A000020410088
:1001900000C84200401C4620BCBE4CCA1B0E5AAED2
:1001A000C59D7400002100240027002A002D003086
:1001B00000330001010000040107010A01000022D0
:1001C00000250028002B002E003100340002010021
:1001D00000050108010B01050505050705080808CC
:1001E00008020202020A0A080804040404010101C8
:1001F00001010101010303030303030303040707D0
:10020000070C0C0C0C0C0C0C0C020202020606066D
:1002100006060606060B0B0B0B0B0B0B0B01021055
:100220002020080810204010204080020102010810
:1002300004020101020408102040808040201008C0
:100240000402018004020180402010080402010819
:100250000402010102040810204080010204081079
:1002600020408000000A0B02090C0D0E0807030451
:10027000010000000000000000000000000000007D
:10028000000000000000000000000000000000125C
:10029000111000000000000000000000000000003D
:1002A00000000000000000000000C80D11241FBE67
:1002B000CFEFD1E2DEBFCDBF00E00CBF23E0A0EE68
:1002C000B2E001C01D92A63BB207E1F712E0A0E048
:1002D000B2E0E4ECF5E200E00BBF02C007900D9243
:1002E000A03EB107D9F711E0C6E5D1E000E006C0B5
:1002F00021970109802FFE010E94AE11C535D1075B
:1003000080E00807A9F70E94360E0C94E0120C94C6
:10031000000008958150823108F075C0E82FF0E0A8
:100320008827EA56FE4F8F4F0C94AE11BA01BE01DA
:10033000A801AE01B4010302C201C801CE01D4017B
:10034000DA01E001E601EC010302F201F801FE012D
:10035000E0E8F0E080818F7780830895E0E8F0E0C6
:1003600080818F7D80830895E0E8F0E08081877F41
:100370008083089584B58F7784BD089584B58F7D7B
:1003800084BD0895E0EBF0E080818F77808308954D
:10039000E0EBF0E080818F7D80830895E0E9F0E07C
:1003A00080818F7780830895E0E9F0E080818F7D00
:1003B00080830895E0E9F0E08081877F808308955D
:1003C000E0EAF0E080818F7780830895E0EAF0E052
:1003D00080818F7D80830895E0EAF0E08081877FCF
:1003E00080830895E0E2F1E080818F778083089533
:1003F000E0E2F1E080818F7D80830895E0E2F1E02A
:100400008081877F808308951F93CF93DF93282F68
:1004100030E0F901ED59FD4F8491F901E35EFD4FA4
:100420001491F901E952FE4FC491CC23A9F0D62FC3
:10043000811116C0EC2FF0E0EE0FFF1FE354FE4FCA
:10044000A591B4918FB7F894D1110DC09C91E12F73
:10045000E095E923EC938FBFDF91CF911F91089531
:100460000E948A01E7CFEC91E12BEC93F4CFCF937C
:10047000DF9390E0FC01E35EFD4F249189529E4F93
:10048000FC018491882319F190E0880F991FFC01E9
:10049000ED55FE4FA591B491FC01E354FE4FC5917B
:1004A000D491662349F06230A9F08FB7F894EC91AB
:1004B000E22BEC938FBF0BC09FB7F8948C91E22F87
:1004C000E0958E238C938881E823E8839FBFDF919A
:1004D000CF9108959FB7F8943C91822F8095832304
:1004E0008C93E881E22BE8839FBFF1CF789484B5A9
:1004F000826084BD84B5816084BD85B5826085BD20
:1005000085B5816085BDEEE6F0E080818160808305
:10051000E1E8F0E0108280818260808380818160E8
:100520008083E0E8F0E0808181608083E1EBF0E0AF
:10053000808184608083E0EBF0E080818160808353
:10054000E1E9F0E080818260808380818160808346
:10055000E0E9F0E0808181608083E1EAF0E0808181
:1005600082608083808181608083E0EAF0E0808126
:1005700081608083E1E2F1E080818260808380811C
:1005800081608083E0E2F1E0808181608083EAE73E
:10059000F0E08081846080838081826080838081BC
:1005A000816080838081806880831092C10008957B
:1005B0003FB7F8948091B0039091B103A091B2033A
:1005C000B091B30326B5A89B05C02F3F19F0019643
:1005D000A11DB11D3FBFBA2FA92F982F8827BC019D
:1005E000CD01620F711D811D911D660F771F881F40
:1005F000991F660F771F881F991F08958F929F92EA
:10060000AF92BF92CF92DF92EF92FF926B017C018B
:100610000E94D8024B015C011BC021E0C21AD10824
:10062000E108F10888EE880E83E0981EA11CB11C39
:10063000C114D104E104F10459F00E94D8026819F0
:1006400079098A099B09683E73408105910528F75D
:10065000C114D104E104F10459F7FF90EF90DF9049
:10066000CF90BF90AF909F908F9008950895DC0138
:10067000ED91FC910190F081E02D19950895CF92B4
:10068000DF92EF92FF920F931F93CF93DF938C0132
:10069000DB01D0E0C0E07A0181E0E81AF108452BE7
:1006A000A1F0F80180819181FC01208131816D01EF
:1006B000FFEFCF1ADF0A6C91C801F9011995892B58
:1006C00021F02196A701D601E6CFCE01DF91CF918F
:1006D0001F910F91FF90EF90DF90CF9008950197B9
:1006E00009F008956F3F7F4FE1F7EEE0F3E01382EA
:1006F000128288EE93E0A0E0B0E084839583A68325
:10070000B78385E192E09183808385EC90E09587C3
:10071000848784EC90E09787868780EC90E0918BCB
:10072000808B81EC90E0938B828B82EC90E0958BB8
:10073000848B86EC90E0978B868B118E128E138EB5
:10074000148ECFCFFC01938D848D981720F4891BD4
:10075000990B019708952FE330E0291B3109820F8F
:10076000932F911D0895FC01918D828D981761F052
:10077000A28DAE0FBF2FB11D5D968C91928D9F5FA4
:100780009F73928F90E008958FEF9FEF0895FC0183
:10079000918D828D981731F0828DE80FF11D858D36
:1007A00090E008958FEF9FEF0895FC01218D30E0D8
:1007B000205C3F4F828DA901481B5109CA018F73EC
:1007C000992708958EE093E00E94D50321E0892BBC
:1007D00009F420E0822F0895CF92DF92EF92FF92EA
:1007E0001F93CF93DF93EC016A017B01122F60E02E
:1007F00079E08DE390E0A70196010E948C112150D1
:100800003109410951095695479537952795E8894A
:10081000F98982E08083C11481EED806E104F104F5
:1008200021F0211580E1380798F0E889F9891082D4
:1008300060E874E88EE190E0A70196010E948C11B7
:10084000215031094109510956954795379527950A
:10085000EC85FD853083EE85FF852083188EEC893D
:10086000FD891083EA89FB89808180618083EA8920
:10087000FB89808188608083EA89FB898081806828
:100880008083EA89FB8980818F7D8083DF91CF918E
:100890001F91FF90EF90DF90CF900895FC01A48D01
:1008A000A80FB92FB11DA35ABF4F2C91848D90E092
:1008B00001968F739078848FA689B7892C93A0892D
:1008C000B1898C91837080648C93938D848D9813FF
:1008D00008950288F389E02D80818F7D8083F8CF91
:1008E0000F931F93CF93DF93EC0181E0888F9B8D53
:1008F0008C8D9817B1F0062F8B8D90E001968F7339
:100900009078182F8C8D81131EC00FB607FCFACF7C
:10091000E889F989808185FFF5CFCE010E944E04D8
:10092000F1CFE889F989808185FFE5CF9FB7F894F9
:10093000EE89FF896083E889F9898081837080640A
:1009400080839FBF10C0EB8DEC0FFD2FF11DE35A8C
:10095000FF4F00839FB7F8941B8FEA89FB89808142
:10096000806280839FBF81E090E0DF91CF911F91F3
:100970000F910895CF93DF93EC01888D811104C00E
:100980000DC00FB607FE0DC0EA89FB89808185FD89
:10099000F8CFA889B9898C9186FFF3CFDF91CF91E9
:1009A0000895808185FFF0CFE889F989808185FFEE
:1009B000EBCFCE010E944E04E7CF80E090E0892B80
:1009C00021F00E94E203811125C080E090E0892B94
:1009D00041F080E090E0892B21F00E94000081111D
:1009E0001CC080E090E0892B41F080E090E0892BF2
:1009F00021F00E940000811113C080E090E0892B5B
:100A000041F080E090E0892B21F00E9400008111EC
:100A10000AC008950E940000D8CF0E940000E1CFD4
:100A20000E940000EACF0E940000F3CFCF93DF9333
:100A3000EC0128813981DB010E947D119B01AC0111
:100A400060E077E883E993E00E948C112B833C837C
:100A50004D835E831F82188619861A86DF91CF9197
:100A60000895CF9360E08CE00E94040260E088E08B
:100A70000E940402C0E009C060E088E00E94040215
:100A800061E084E00E940402CF5FC830B8F460E007
:100A900084E00E94040227E030E02C1B31098091A1
:100AA0000C0390E002C0959587952A95E2F780FFA8
:100AB000E3CF61E088E00E940402E2CF61E08CE0D5
:100AC0000E940402CF910895CF93DF93DC01129628
:100AD0008C911297813049F0823011F080E03EC154
:100AE00070E450E8C1E0D0E204C070E158E0C2E038
:100AF000D4E0413009F442C0423009F45CC04330D4
:100B000009F476C0443009F485C06FEF9FEF1B965F
:100B10002C911B972F731B962C931B97813009F4F4
:100B2000D6C0823009F4E0C02D2F2C2B922F952BAC
:100B3000972B909580910C03982390930C0344304D
:100B400009F4DFC01B96EC911B97F0E0F595E79553
:100B5000F595E795F595E795E830F10508F0F8C0CB
:100B60008827EA54FA4F8F4F0C94AE11B106B506A0
:100B7000B906BD06C206C606CB06CF061B969C91DB
:100B80001B9793FF0CC0613029F098501B969C93E3
:100B90001B97B8CF985F1B969C931B97B3CF613080
:100BA00029F090511B969C931B97ACCF905F1B969E
:100BB0009C931B97A7CF1B969C911B9793FD0CC0F2
:100BC000613029F098501B969C931B979BCF985FA0
:100BD0001B969C931B9796CF613029F090511B96E2
:100BE0009C931B978FCF905F1B969C931B978ACFEC
:100BF000613041F01B969C911B9798501B969C93DB
:100C00001B9780CF1B969C911B97985F1B969C937C
:100C10001B9778CF6130E9F01B969C911B97915000
:100C20001B969C931B971B962C911B972F731B96BF
:100C30002C931B972031A8F430E0E0E1F0E0E21BB8
:100C4000F30BE050FE4F608120503E4FF901908140
:100C50005ECF1B969C911B979F5F1B969C931B9747
:100C6000E2CF90EF920F903168F430E0F901E0515B
:100C7000FE4F6081E0E2F0E0E21BF30BE050FE4F3C
:100C8000908145CF90EE920F903168F430E0E0E330
:100C9000F0E0E21BF30BE050FE4F608120523E4F2C
:100CA000F901908134CF90ED920F903168F430E0EB
:100CB000F901E053FE4F6081E0E4F0E0E21BF30B4A
:100CC000E050FE4F908123CF60E090E020CF262FB0
:100CD00030E03093890020938800892F90E0909332
:100CE0009D0080939C0020CF262F30E03093A900F8
:100CF0002093A800892F90E090939900809398000A
:100D000013CF1B968C911B97803118F4922B9093E4
:100D10000C0390EF980F903130F4C52B20910C0309
:100D2000C22BC0930C0390EE980F903138F4952F9E
:100D3000972B20910C03922B90930C0380538031BE
:100D400038F49D2F972B80910C03982B90930C03D4
:100D5000ED018DE093E00E9431058B85DF91CF910D
:100D600008959D2B90930C03F3CF922B90930C033B
:100D7000EFCF9C2B90930C03EBCF5C2B952B909398
:100D80000C03E6CF952B90930C03E2CF572B952BBA
:100D900090930C03DDCF972B90930C03D9CF7D2B31
:100DA000972B90930C03D4CFCF93DF93EC0161E0AA
:100DB0008CE00E94370261E087E00E94370261E028
:100DC00088E00E94370261E084E00E9437021092BE
:100DD0000C03CE010E94310560E087E00E9404020E
:100DE000DF91CF910895EF92FF920F931F93CF93CE
:100DF000DF93EC017B01142F8DE093E00E94D40679
:100E0000F982E8821A831B86113051F0123009F4FE
:100E100048C0DF91CF911F910F91FF90EF900895FF
:100E200080910C03817E80930C038DE093E00E94FF
:100E3000310561E08BE00E94370261E083E00E94AF
:100E4000370261E08BE00E94040261E083E00E94CF
:100E50000402E0E8F0E0808181688083C9E0C0930B
:100E6000810008E810E0F8011182108261E08BE057
:100E70000E943702E0E9F0E0808189608083C093BE
:100E80009100CCE9D0E01982188261E083E00E94F1
:100E900037028FEF90E0F8019183808399838883F4
:100EA000B8CF80910C038E7180930C038DE093E09A
:100EB0000E94310561E085E00E94370261E086E032
:100EC0000E94370261E085E00E94040261E086E052
:100ED0000E940402E0EAF0E0808181688083C9E03A
:100EE000C093A10008EA10E0F8011182108261E0CD
:100EF00086E00E943702E0E9F0E08081816880832B
:100F0000C0939100C8E9D0E01982188261E085E0C1
:100F10000E9437028FEF90E0F801918380839983DC
:100F2000888377CFFC0110820895019709F0089516
:100F30006F3F7F4FE1F78DE093E00E949207F7CF7C
:100F4000019709F008956F3F7F4FE1F741E068ECAA
:100F500070E080E093E00E94F30642E068EC70E00D
:100F600084EF92E00E94F3061092F0021092F102D8
:100F70001092F2021092F3021092EC021092ED0223
:100F80001092EE021092EF02DDCFDF92EF92FF920D
:100F90000F931F93CF93DF93CDB7DEB7A1970FB613
:100FA000F894DEBF0FBECDBF7C01CB01BA01D22EBB
:100FB00019A221E02D1520F48E010F5D1F4F0EC0E8
:100FC0000F2EFAE0DF2EF02DF7CFE95CD801EE937B
:100FD0008D01611571058105910579F02D2D30E0A8
:100FE00050E040E00E948C11E62F622F732F842F77
:100FF000952FEA3054F7E05DE9CF1097F9F0FD0145
:1010000001900020E9F73197AF014A1B5B0BD70134
:10101000ED91FC910280F381E02DB801C701199593
:10102000A1960FB6F894DEBF0FBECDBFDF91CF9172
:101030001F910F91FF90EF90DF90089590E080E076
:10104000EFCF2115310549F4DC01ED91FC910190C0
:10105000F081E02D642F199508950E94C507089529
:101060009A01AB0170E060E00E9421080895CF92E0
:10107000DF92EF92FF920F931F93CF93DF93EC01D8
:101080006A017B012115310581F4E881F981019024
:10109000F081E02D642F1995DF91CF911F910F9171
:1010A000FF90EF90DF90CF9008952A303105C1F482
:1010B000FF2024F02AE00E94C507EECF6DE20E94D7
:1010C00037038C0144275527BA014C195D096E0975
:1010D0007F092AE0CE010E94C507800F911FDCCF57
:1010E0000E94C507D9CFDC01ED91FC910280F3810C
:1010F000E02D42E050E063E272E019950895611539
:10110000710581F0FB0101900020E9F73197AF01F3
:10111000461B570BDC01ED91FC910280F381E02D21
:101120001995089590E080E008954F925F926F9234
:101130007F92AF92BF92CF92DF92EF92FF920F9386
:101140001F93CF93DF9300D01F921F92CDB7DEB7CE
:101150005C016A017B012D83AB019601CB01B601D5
:101160000E94D012811151C026013701E89477F80E
:1011700021E029832FEF3FEF4FE75FE7C301B20183
:101180000E94D01281110BC02FEF3FEF4FE75FE7B6
:10119000C301B2010E944B1018160CF41982898108
:1011A0008823D1F12FEF3FEF4FE75FE4C701B6018E
:1011B0000E94CB1218160CF44AC02FEF3FEF4FE7F6
:1011C0005FECC701B6010E944B1088230CF446C0A7
:1011D00020E030E0A901C701B6010E944B1088232E
:1011E0000CF443C0712C612C10E060E070E080E0F2
:1011F0009FE32D81121708F042C020E030E040E26A
:1012000051E40E9423121F5FF4CF66E272E0C50131
:101210000E947F088C0106C06AE272E0C5010E944C
:101220007F088C01C8010F900F900F900F900F90C6
:10123000DF91CF911F910F91FF90EF90DF90CF90B2
:10124000BF90AF907F906F905F904F9008956EE247
:1012500072E0C5010E947F088C01E4CF6EE272E06B
:10126000C5010E947F088C01DDCF6DE2C5010E949F
:1012700037033C01F7FAF094F7F8F094B5CF9B01EF
:10128000AC01C701B6010E94B7116B017C010E943D
:101290009C1269837A838B839C830E9450109B01EC
:1012A000AC01C701B6010E94B6116B017C012AE0B6
:1012B00030E049815A816B817C81C5010E942108FF
:1012C0008301080F191F8D8181112BC02D812150A1
:1012D00029838D81882309F4A5CF20E030E040E206
:1012E00051E4C701B6010E94B1102B013C010E94DC
:1012F0009C126B014AE050E0C5010E943008080FC3
:10130000191FB60190E080E00E9450109B01AC01D3
:10131000C301B2010E94B6116B017C0129812D83AA
:10132000D5CF6EE2C5010E943703080F191FCECF3B
:101330000E94950808950F931F93CF93DF93EC01BC
:101340000E9498098C01CE010E947308800F911FA2
:10135000DF91CF911F910F9108950F931F93CF931A
:10136000DF93EC010E947F088C01CE010E9473087C
:10137000800F911FDF91CF911F910F91089561E030
:1013800086E00E9404026AE070E080E090E00E9443
:10139000FE0261E08FE00E94040260E080E10E94B2
:1013A0000402089560E086E00E9404026AE070E0B2
:1013B00080E090E00E94FE0260E08FE00E94040264
:1013C00061E080E10E94040208954F925F926F9263
:1013D0007F928F929F92AF92BF92CF92DF92EF92C5
:1013E000FF92CF93DF93CDB7DEB72E970FB6F89469
:1013F000DEBF0FBECDBF4B015C0169017A0120E069
:1014000030E040E252E40E94CB12882344F00F2ED9
:10141000812C912CF0E2AF2EF2E4BF2EF02D20E0D3
:1014200030E0A901C501B4010E944B1018161CF050
:10143000812C912C540120E030E040E252E4C701BD
:10144000B6010E94CB12882344F00F2EC12CD12C60
:10145000F0E2EF2EF2E4FF2EF02D20E030E0A901C3
:10146000C701B6010E944B1018161CF0C12CD12CDC
:10147000760120E030E048EC52E4C501B4010E945E
:10148000B1100E949512072E000C880B990B0E9438
:1014900052106D837E838F83988720E030E048EC84
:1014A00052E4C701B6010E94B1100E949512072EA6
:1014B000000C880B990B0E94521069877A878B87E2
:1014C0009C878090F0029090F102A090F202B09080
:1014D000F3024090EC025090ED026090EE027090AA
:1014E000EF02A50194016D817E818F8198850E9414
:1014F000B6116B017C0120E030E0A9010E94CB1203
:1015000018160CF048C0C701B6010E9495126983F5
:101510007A838B839C83A301920169857A858B856D
:101520009C850E94B6116B017C0120E030E0A9018E
:101530000E94CB121816CCF5C701B6010E94951275
:101540006B017C01A50194016D817E818F8198855D
:101550000E94CB1218168CF581E08D87A3019201B1
:1015600069857A858B859C850E94CB12181644F577
:10157000A1E0AE8789819A81AB81BC81C816D9066A
:10158000EA06FB060CF052C0812C912C5401412C30
:10159000512C320123C0C701B60190580E94951208
:1015A00069837A838B839C83B6CFC701B601905839
:1015B0000E9495126B017C01C5CF9FEF9D87CECF16
:1015C000BFEFBE87D7CF65E070E080E090E00E947B
:1015D000FE029FEF491A590A690A790A89819A819C
:1015E000AB81BC81481659066A067B060CF053C0D5
:1015F00044E06D8584EF92E00E9464058C0C9D1C94
:10160000AE1CBF1C89819A81AB81BC81881699066A
:10161000AA06BB06C4F2881A990AAA0ABB0A44E0C1
:101620006E8580E093E00E946405CDCF812C912CE3
:101630005401412C512C32010BC065E070E080E078
:1016400090E00E94FE029FEF491A590A690A790A3E
:101650004C145D046E047F04F4F444E06E8580E075
:1016600093E00E94640589819A81AB81BC81880ED8
:10167000991EAA1EBB1E8C149D04AE04BF04ECF27E
:101680008C189D08AE08BF0844E06D8584EF92E099
:101690000E946405D2CF60E070E0CB010E94FE02A0
:1016A0008D819E81AF81B8858093F0029093F10285
:1016B000A093F202B093F30289859A85AB85BC852D
:1016C0008093EC029093ED02A093EE02B093EF02B0
:1016D0002E960FB6F894DEBF0FBECDBFDF91CF912F
:1016E000FF90EF90DF90CF90BF90AF909F908F9042
:1016F0007F906F905F904F90089526E040E855E20C
:1017000060E070E08EE093E00E94EC0361E086E030
:101710000E94370260E086E00E94040264E670E006
:1017200080E090E00E94FE0264E670E084EF92E0C8
:101730000E94160564E670E080E093E00E941605C2
:1017400062E372E08EE093E00E94AD0966E572E02C
:101750008EE093E00E947F0822E030E040E050E01D
:10176000BA018EE093E00E94980967E672E08EE08D
:1017700093E00E947F0822E030E040E050E060E229
:1017800072E48EE093E00E9498096CE672E08EE0CD
:1017900093E00E94AD0961E772E08EE093E00E9461
:1017A0007F0822E030E040E050E0BA018EE093E0B4
:1017B0000E94980967E672E08EE093E00E947F083D
:1017C00022E030E040E050E060E272E48EE093E03E
:1017D0000E9498096CE672E08EE093E00E94AD09E9
:1017E00008954F925F926F927F92AF92BF92CF9285
:1017F000DF92EF92FF920F931F93CF93DF93CDB7BA
:10180000DEB7C055D1090FB6F894DEBF0FBECDBF0D
:101810006C015B0110E000E001C087010A151B05A7
:101820000CF027C178012FEFE21AF20AF601E00F5F
:10183000F11F8081873481F04CF08D3409F49CC015
:10184000853559F70E94D2098701E8CF843429F7FA
:101850000E94BF098701E2CF0E5F1F4FF601EE0D18
:10186000FF1D808189831A82CE0101960E94A60EF7
:101870000297A0F668E570E07601E00EF11EC70160
:101880000E94D5123C0169E570E0C7010E94D512A3
:10189000009709F440C06114710409F455C0019621
:1018A0000E94A20E29966CAF7DAF8EAF9FAF299795
:1018B000C30101960E94A20E25966CAF7DAF8EAF3C
:1018C0009FAF259729964CAC5DAC6EAC7FAC299749
:1018D00025968CAD9DADAEADBFAD259761968CAF15
:1018E0009DAFAEAFBFAF6197A3019201BC01CD0127
:1018F0000E94E509E0EEF2E061968CAD9DADAEADE3
:10190000BFAD619780839183A283B3834482558264
:101910006682778283CFC30101960E94A20E25962C
:101920006CAF7DAF8EAF9FAF25978091E402909111
:10193000E502A091E602B091E70229968CAF9DAF37
:10194000AEAFBFAF2997BECF01960E94A20E2996D7
:101950006CAF7DAF8EAF9FAF29978091E0029091E1
:10196000E102A091E202B091E30225968CAF9DAF17
:10197000AEAFBFAF2597A6CFC8010296F601EE0D18
:10198000FF1D20812983F601E80FF91F80818A83DA
:10199000F8013396EC0DFD1D0C5F1F4F80818B838A
:1019A0001C82CE0101960E94A60E8237910541F15C
:1019B0008C32914009F04FC063E570E0C601800FA2
:1019C000911F0E94D51201960E94A20E2B013C018C
:1019D00020E030E040EF51E40E944B10882369F092
:1019E00020E030E048E452E4C301B2010E944B1011
:1019F000811114CF0E94D20911CF0E94BF09F0CFEC
:101A000062E872E08EE093E00E947F080F2EF0EE15
:101A1000EF2EF2E0FF2EF02DF7014081518162811F
:101A2000738122E030E08EE093E00E9498096BE938
:101A300072E08EE093E00E947F08D70114964D91EA
:101A40005D916D917C91179722E030E08EE093E0FC
:101A50000E949B09E3CE65EA72E08EE093E00E946B
:101A60007F08BE016F5F7F4F8EE093E00E94AD095B
:101A7000D5CEC05BDF4F0FB6F894DEBF0FBECDBF33
:101A8000DF91CF911F910F91FF90EF90DF90CF905A
:101A9000BF90AF907F906F905F904F900895CF93DD
:101AA000DF93CDB7DEB7D2500FB6F894DEBF0FBECE
:101AB000CDBF64E670E080E090E00E94FE02E12C81
:101AC000F12C10E000E01FC0FF24F3941CC0EE24B2
:101AD000E39419C01016110674F4E1E0F0E0EC0F85
:101AE000FD1FE00FF11F1082B801CE0101960E9488
:101AF000F10B10E000E060EC72E08EE093E00E94F9
:101B0000AD09E12CF12C8EE093E00E94D50318166C
:101B10001906CCF78EE093E00E94B303982F8A3029
:101B2000C9F28D30B9F2F11002C0EE2021F09932E5
:101B300051F7F12CE8CF813234F38F3221F3883220
:101B400019F28B3321F20F3F91E019077CF49FE9E2
:101B5000980F9A3198F48052E1E0F0E0EC0FFD1F0D
:101B6000E00FF11F80830F5F1F4FCDCF63EC72E05A
:101B70008EE093E00E94AD09FE2CC5CFE1E0F0E0DD
:101B8000EC0FFD1FE00FF11F80830F5F1F4FBBCFD6
:101B90006FEF7FEF81E090E00E946F036FEF7FEFC8
:101BA00081E090E00E9495076FEF7FEF81E090E089
:101BB0000E94A00708951F920F920FB60F92112452
:101BC0000F931F932F933F934F935F936F937F9345
:101BD0008F939F93AF93BF930091AC031091AD038C
:101BE0002091AE033091AF039091AB03B901A801EE
:101BF0004F5F5F4F6F4F7F4F83E0890F8D3740F00E
:101C000086E8890FB901A8014E5F5F4F6F4F7F4F84
:101C10008093AB034093AC035093AD036093AE034A
:101C20007093AF038091B0039091B103A091B20380
:101C3000B091B3030196A11DB11D8093B0039093A1
:101C4000B103A093B203B093B303BF91AF919F913F
:101C50008F917F916F915F914F913F912F911F9144
:101C60000F910F900FBE0F901F9018950E94760253
:101C70000E947D0B0E944F0D1F920F920FB60F9284
:101C800011240BB60F922F933F934F935F936F9353
:101C90007F938F939F93AF93BF93EF93FF938EE0C8
:101CA00093E00E944E04FF91EF91BF91AF919F91FD
:101CB0008F917F916F915F914F913F912F910F90F5
:101CC0000BBE0F900FBE0F901F9018951F920F9292
:101CD0000FB60F9211240BB60F922F938F939F93F1
:101CE000AF93BF93EF93FF93E0911E03F0911F0317
:101CF000808182FD14C0EEE0F3E0A689B7892C91C3
:101D0000818D8F5F8F73928D891771F0DF01E18D67
:101D1000F0E0E25FFC4F258F59968C9305C0E0916F
:101D20002403F09125038081FF91EF91BF91AF9142
:101D30009F918F912F910F900BBE0F900FBE0F9020
:101D40001F901895662777270C94CC0EFC018827E6
:101D50009927E89421912032E9F3293010F02E30B0
:101D6000C8F32B3241F02D3239F4689404C00E943C
:101D7000C40E820F911D219120532A30C0F31EF40E
:101D8000909581959F4F08957AE0979F902D879F1A
:101D9000802D910D112408958F929F92AF92BF9242
:101DA000CF92DF92EF92FF920F931F93CF93DF9327
:101DB0005C017B016115710519F0DB018D939C932A
:101DC00085010F5F1F4FF501D0818D2F90E00E949C
:101DD0002A106C01892BB9F5DD32B9F50F5F1F4F61
:101DE000D5011196DC91C1E05801F1E0AF1AB108BC
:101DF00043E050E060E771E0C5010E943310892B99
:101E000069F5680182E0C80ED11C45E050E06BE640
:101E100071E0C6010E943310892B21F4680197E01C
:101E2000C90ED11CE114F10419F0D701CD92DC9256
:101E300060E070E080E89FEFC111FFC060E070E0FB
:101E400080E89FE7FAC05801BBCFDB3229F4850157
:101E50000E5F1F4FF501D181C0E0C6CF43E050E0D7
:101E600068E671E0C5010E943310892BE9F0F801A2
:101E700010E000E020E030E0A9015F01B0ED8B2E22
:101E80008D0E89E08815C8F19C2E689491F88C2FEE
:101E90008870C2FF16C0811102C00F5F1F4F3196BC
:101EA000D501DC91C92DE9CFE114F10429F00E5FD1
:101EB0001F4FF7011183008360E070E080EC9FE723
:101EC000BCC0882311F001501109A5E0B0E00E94C8
:101ED00072119B01AC01220F331F441F551F280DA7
:101EE000311D411D511D283999E93907490799E1EB
:101EF0005907A8F2C6609C2ED2CFAEEF8A1206C058
:101F0000C3FD3CC09C2E689493F8C9CFDF7DD534C7
:101F1000A9F580818D3239F4C061DF01129681818B
:101F200062E070E006C0DF018B32C1F3119661E020
:101F300070E080535D01A61AB70A8A30F8F4E0E831
:101F4000CE16ECE0DE065CF4B601660F771F660F76
:101F5000771FC60ED71ECC0CDD1CC80ED11C5D0130
:101F6000FFEFAF1ABF0A8C9180538A30A8F1C4FFEB
:101F700003C0D194C194D1080C0D1D1DC1FF09C02F
:101F8000E114F10431F081E0A81AB108D701AD9253
:101F9000BC92CA01B9010E945010C370C33009F449
:101FA00090584B015C0120E030E0A9010E944B10E9
:101FB000882309F440C0CFE9D1E017FF05C011958F
:101FC00001951109C7E8D1E06E01B8E1CB1AD1083B
:101FD00080E2E82EF12C0FC0D501B1CFFE01259192
:101FE0003591459154910E191F09C501B4010E9404
:101FF000B1104B015C01D501C4010E151F0574F72A
:102000002497F594E794CC16DD06A9F78A2F880F5C
:102010008B2F881F8F3F49F020E030E0A901C501D8
:10202000B4010E944B10811106C082E290E09093AF
:10203000B5038093B403C501B401DF91CF911F9123
:102040000F91FF90EF90DF90CF90BF90AF909F9057
:102050008F90089591110C941E11803219F08950BF
:102060008550C8F70895FB01DC014150504088F0CD
:102070008D9181341CF08B350CF4805E6591613458
:102080001CF06B350CF4605E861B611171F3990BCB
:102090000895881BFCCF0E948D1008F481E00895FC
:1020A000E89409C097FB3EF49095809570956195F2
:1020B0007F4F8F4F9F4F9923A9F0F92F96E9BB27A8
:1020C0009395F695879577956795B795F111F8CF24
:1020D000FAF4BB0F11F460FF1BC06F5F7F4F8F4F8F
:1020E0009F4F16C0882311F096E911C0772321F085
:1020F0009EE8872F762F05C0662371F096E8862F1D
:1021000070E060E02AF09A95660F771F881FDAF773
:10211000880F9695879597F90895990F0008550FA0
:10212000AA0BE0E8FEEF16161706E807F907C0F05D
:1021300012161306E407F50798F0621B730B840B65
:10214000950B39F40A2661F0232B242B252B21F43F
:1021500008950A2609F4A140A6958FEF811D811DDF
:1021600008950E94C4100C9438110E942A1138F06E
:102170000E94311120F0952311F00C9421110C9440
:10218000271111240C946C110E94491170F3959F32
:10219000C1F3950F50E0551F629FF001729FBB275E
:1021A000F00DB11D639FAA27F00DB11DAA1F649FFA
:1021B0006627B00DA11D661F829F2227B00DA11DAD
:1021C000621F739FB00DA11D621F839FA00D611D33
:1021D000221F749F3327A00D611D231F849F600D54
:1021E000211D822F762F6A2F11249F5750409AF07D
:1021F000F1F088234AF0EE0FFF1FBB1F661F771F09
:10220000881F91505040A9F79E3F510580F00C94D3
:1022100021110C946C115F3FE4F3983ED4F3869542
:1022200077956795B795F795E7959F5FC1F7FE2B73
:10223000880F911D9695879597F908959927882776
:10224000089597F99F6780E870E060E008959FEF38
:1022500080EC089500240A9416161706180609063D
:10226000089500240A94121613061406050608950C
:10227000092E0394000C11F4882352F0BB0F40F494
:10228000BF2B11F460FF04C06F5F7F4F8F4F9F4FD4
:10229000089557FD9058440F551F59F05F3F71F056
:1022A0004795880F97FB991F61F09F3F79F08795BD
:1022B0000895121613061406551FF2CF4695F1DF46
:1022C00008C0161617061806991FF1CF86957105D6
:1022D000610508940895E894BB2766277727CB010A
:1022E00097F908950E947D11A59F900DB49F900DC0
:1022F000A49F800D911D11240895A29FB001B39F4A
:10230000C001A39F700D811D1124911DB29F700DFE
:10231000811D1124911D0895A1E21A2EAA1BBB1B39
:10232000FD010DC0AA1FBB1FEE1FFF1FA217B307A1
:10233000E407F50720F0A21BB30BE40BF50B661FB7
:10234000771F881F991F1A9469F76095709580957B
:1023500090959B01AC01BD01CF010895EE0FFF1FC9
:10236000881F8BBF0790F691E02D19945058BB271A
:10237000AA270E94CE110C9438110E942A1138F01D
:102380000E94311120F039F49F3F19F426F40C9487
:1023900027110EF4E095E7FB0C942111E92F0E9420
:1023A000491158F3BA17620773078407950720F09D
:1023B00079F4A6F50C946B110EF4E0950B2EBA2F60
:1023C000A02D0B01B90190010C01CA01A00111243B
:1023D000FF27591B99F0593F50F4503E68F11A16E7
:1023E000F040A22F232F342F4427585FF3CF469578
:1023F00037952795A795F0405395C9F77EF41F169A
:10240000BA0B620B730B840BBAF09150A1F0FF0F63
:10241000BB1F661F771F881FC2F70EC0BA0F621F4F
:10242000731F841F48F4879577956795B795F7953F
:102430009E3F08F0B0CF9395880F08F09927EE0FD4
:102440009795879508950E9437120C9438110E9431
:10245000311158F00E942A1140F029F45F3F29F011
:102460000C94211151110C946C110C9427110E94A1
:10247000491168F39923B1F3552391F3951B550B3B
:10248000BB27AA2762177307840738F09F5F5F4F47
:10249000220F331F441FAA1FA9F335D00E2E3AF086
:1024A000E0E832D091505040E695001CCAF72BD09E
:1024B000FE2F29D0660F771F881FBB1F26173707EF
:1024C0004807AB07B0E809F0BB0B802DBF01FF2721
:1024D00093585F4F3AF09E3F510578F00C942111CC
:1024E0000C946C115F3FE4F3983ED4F38695779596
:1024F0006795B795F7959F5FC9F7880F911D9695DA
:10250000879597F90895E1E0660F771F881FBB1F35
:10251000621773078407BA0720F0621B730B840BE2
:10252000BA0BEE1F88F7E09508950E949C126894FC
:10253000B1110C946C1108950E94511188F09F57AD
:1025400098F0B92F9927B751B0F0E1F0660F771FD7
:10255000881F991F1AF0BA95C9F714C0B13091F0CD
:102560000E946B11B1E008950C946B11672F782FC6
:102570008827B85F39F0B93FCCF386957795679592
:10258000B395D9F73EF490958095709561957F4FFE
:102590008F4F9F4F08950E948D1008F48FEF08957C
:1025A0000E948D10880B990B0895FC01819186176C
:1025B00021F08823D9F7992708953197CF010895FD
:0425C000F894FFCFBD
:1025C4000019324A62788DA2B4C5D4E1ECF4FAFD64
:1025D400FF0000000070043F03A203BA04D503B354
:1025E40003C7030D0A006E616E00696E66006F76A4
:1025F40066004D696E6920434E4320506C6F7474BD
:10260400657220616C69766520616E64206B696314
:102614006B696E672100582072616E67652069736B
:102624002066726F6D200020746F2000206D6D2E67
:1026340000592072616E67652069732066726F6D40
:1026440020004162736F6C75746520706F736974D8
:10265400696F6E203A2058203D200020202D202034
:1026640059203D2000436F6D6D616E64206E6F7460
:10267400207265636F676E697A6564203A204D0045
:102684006F6B004552524F52202D206C696E65428B
:102694007566666572206F766572666C6F7700008A
:00000001FF
